PAR410016394                          SCFCDG    FRSIPA-A  laurent.marcos@DBSCHENKER.COM                                                                                           MARCOS_LAUMARCOS laurent exploitation                       0141843634                                                                                389470303 -A        381          FR4111              389470303                     *                                                                                                                                                                                                                                                                                                                                                                                                                                                                                                                                                                                                                                                                                                                                                                                                                                                                                                                                                                                                                                                                                                                                                                                                                                                                                                                                                                                                                                                                                                                                                                                                                                                    
ENT389470303           410016394                          38120230126AAIAPE : 5229B                                                                                                                                                                                                                                                                                                                                                   0000000000020800EUR000000000000030000000000000190000000000000001500EUR001000000000000000020800                                                                                                                                                                                                                                                                2059437   20312751202301262023012620230303115048AIP+01:00FR$SCFCDG389470303$410016394$20312751                                                                                                                                                                            0110                                                                                  SCHENKER FRANCE                    ZI Nord   CS 07003                                                    85607    MONTAIGU Cedex                     FRA+33 (0)2.51.45.20.00                                                        *                                                                                                                                                                                                                                                                                                                                                                                                                                                                                                                                                                                                                                                                       
TIE410016394                          II SCHENKER FRANCE SAS                BAT.3626  RUE DU PIED SEC          ROISSY CDG                         93290    TREMBLAY EN FRANCE CEDEX           FR CDG       FR30550502942       AGENCE DE ROISSY CDG                                                   33141843615        31179945601446   0         797034    FR4111    11199     SCFCDG                    SAS       5.749.008                     EUR                      *                                                                                                                                                                                                                                                                                                                                                                                                                                                                                                                                                                                                                                                                                                                                                                                                                                                                                                                                                                                                                                                                                                                                                                                                                                                                                                                                                                                                                                                                                                                                                                                                  
TIE410016394                          IV CONNECTEURS ELCTRIQUES DEUTSCH     17 RUE LAVOISIER                                                      27091    EVREUX                             FR BP712     FR40389470303                                                                                                 38947030300014    27656                                  389470303 N                                                                                *                                                                                                                                                                                                                                                                                                                                                                                                                                                                                                                                                                                                                                                                                                                                                                                                                                                                                                                                                                                                                                                                                                                                                                                                                                                                                                                                                                                                                                                                                                                                                                                                  
TIE410016394                          RE SCHENKER FRANCE SAS                BAT.3626  RUE DU PIED SEC          ROISSY CDG                         93290    TREMBLAY EN FRANCE CEDEX           FR CDG       FR30550502942                                                                                                 31179945601446    27656                                  389470303 N                                                                                *                                                                                                                                                                                                                                                                                                                                                                                                                                                                                                                                                                                                                                                                                                                                                                                                                                                                                                                                                                                                                                                                                                                                                                                                                                                                                                                                                                                                                                                                                                                                                                                                  
EN2410016394                          3  5                   3  D  030202302250200001250000000000001500EUR                                                                                                                                          VIREMENT BANCAIRE   1040000000000019000EURT FR                                                                                                     *                                                                                                                                                                                                                                                                                                                                                                                                                                                                                                                                                                                                                                                                                                                                                                                                                                                                                                                                                                                                                                                                                                                                                                                                                                                                                                                                                                                                                                                                                                                                                                                                                                                                        
COP410016394                          00000PJ : IMA  2210571516 le 08/11/22                                                                                        001*                                                                                                                                                                                                                                                                                                                                                                                                                                                                                                                                                                                                                                                                                                                                                                                                                                                                                                                                                                                                                                                                                                                                                                                                                                                                                                                                                                                                                                                                                                                                                                                                                                                                                                                                                                                                                                                                                                         
COR410016394                          00000                                                                    PLT : NS                                            001*                                                                                                                                                                                                                                                                                                                                                                                                                                                                                                                                                                                                                                                                                                                                                                                                                                                                                                                                                                                                                                                                                                                                                                                                                                                                                                                                                                                                                                                                                                                                                                                                                                                                                                                                                                                                                                                                                                         
COR410016394                          00000AVOIR SUR FACTURE ....  110059437                                                                                       002*                                                                                                                                                                                                                                                                                                                                                                                                                                                                                                                                                                                                                                                                                                                                                                                                                                                                                                                                                                                                                                                                                                                                                                                                                                                                                                                                                                                                                                                                                                                                                                                                                                                                                                                                                                                                                                                                                                         
COR410016394                          00000GROUPAGE   2.047864.4   N  COMPTABLE :  27656                                                                           003*                                                                                                                                                                                                                                                                                                                                                                                                                                                                                                                                                                                                                                                                                                                                                                                                                                                                                                                                                                                                                                                                                                                                                                                                                                                                                                                                                                                                                                                                                                                                                                                                                                                                                                                                                                                                                                                                                                         
BQE410016394                               10510516001                                                                                         BANK1BankAccount       *                                                                                                                                                                                                                                                                                                                                                                                                                                                                                                                                                                                                                                                                                                                                                                                                                                                                                                                                                                                                                                                                                                                                                                                                                                                                                                                                                                                                                                                                                                                                                                                                                                                                                                                                                                                                                                                                                                         
BQE410016394                               17789                                                                                               BANK1BankCodeLocal     *                                                                                                                                                                                                                                                                                                                                                                                                                                                                                                                                                                                                                                                                                                                                                                                                                                                                                                                                                                                                                                                                                                                                                                                                                                                                                                                                                                                                                                                                                                                                                                                                                                                                                                                                                                                                                                                                                                         
BQE410016394                               EUR                                                                                                 BANK1BankCurrencySym   *                                                                                                                                                                                                                                                                                                                                                                                                                                                                                                                                                                                                                                                                                                                                                                                                                                                                                                                                                                                                                                                                                                                                                                                                                                                                                                                                                                                                                                                                                                                                                                                                                                                                                                                                                                                                                                                                                                         
BQE410016394                               FR76 1778 9000 0110 5105 1600 177                                                                   BANK1BankIban          *                                                                                                                                                                                                                                                                                                                                                                                                                                                                                                                                                                                                                                                                                                                                                                                                                                                                                                                                                                                                                                                                                                                                                                                                                                                                                                                                                                                                                                                                                                                                                                                                                                                                                                                                                                                                                                                                                                         
BQE410016394                               DEUTSCHE BANK AG PARIS                                                                              BANK1BankName          *                                                                                                                                                                                                                                                                                                                                                                                                                                                                                                                                                                                                                                                                                                                                                                                                                                                                                                                                                                                                                                                                                                                                                                                                                                                                                                                                                                                                                                                                                                                                                                                                                                                                                                                                                                                                                                                                                                         
BQE410016394                               DEUTFRPP                                                                                            BANK1BankSwiftBic      *                                                                                                                                                                                                                                                                                                                                                                                                                                                                                                                                                                                                                                                                                                                                                                                                                                                                                                                                                                                                                                                                                                                                                                                                                                                                                                                                                                                                                                                                                                                                                                                                                                                                                                                                                                                                                                                                                                         
BQE410016394                               10510516003                                                                                         BANK2BankAccount       *                                                                                                                                                                                                                                                                                                                                                                                                                                                                                                                                                                                                                                                                                                                                                                                                                                                                                                                                                                                                                                                                                                                                                                                                                                                                                                                                                                                                                                                                                                                                                                                                                                                                                                                                                                                                                                                                                                         
BQE410016394                               17789                                                                                               BANK2BankCodeLocal     *                                                                                                                                                                                                                                                                                                                                                                                                                                                                                                                                                                                                                                                                                                                                                                                                                                                                                                                                                                                                                                                                                                                                                                                                                                                                                                                                                                                                                                                                                                                                                                                                                                                                                                                                                                                                                                                                                                         
BQE410016394                               USD                                                                                                 BANK2BankCurrencySym   *                                                                                                                                                                                                                                                                                                                                                                                                                                                                                                                                                                                                                                                                                                                                                                                                                                                                                                                                                                                                                                                                                                                                                                                                                                                                                                                                                                                                                                                                                                                                                                                                                                                                                                                                                                                                                                                                                                         
BQE410016394                               FR76 1778 9000 0110 5105 1600 371                                                                   BANK2BankIban          *                                                                                                                                                                                                                                                                                                                                                                                                                                                                                                                                                                                                                                                                                                                                                                                                                                                                                                                                                                                                                                                                                                                                                                                                                                                                                                                                                                                                                                                                                                                                                                                                                                                                                                                                                                                                                                                                                                         
BQE410016394                               DEUTSCHE BANK AG PARIS                                                                              BANK2BankName          *                                                                                                                                                                                                                                                                                                                                                                                                                                                                                                                                                                                                                                                                                                                                                                                                                                                                                                                                                                                                                                                                                                                                                                                                                                                                                                                                                                                                                                                                                                                                                                                                                                                                                                                                                                                                                                                                                                         
BQE410016394                               DEUTFRPP                                                                                            BANK2BankSwiftBic      *                                                                                                                                                                                                                                                                                                                                                                                                                                                                                                                                                                                                                                                                                                                                                                                                                                                                                                                                                                                                                                                                                                                                                                                                                                                                                                                                                                                                                                                                                                                                                                                                                                                                                                                                                                                                                                                                                                         
EN4410016394                                                                                                                              *                                                                                                                                                                                                                                                                                                                                                                                                                                                                                                                                                                                                                                                                                                                                                                                                                                                                                                                                                                                                                                                                                                                                                                                                                                                                                                                                                                                                                                                                                                                                                                                                                                                                                                                                                                                                                                                                                                                                     
FAC410016394                          0000120312751            0000000000000030000000000000008147 0000000000000030KGM-000000000020500EUR2022110220312751            35670020394128                                    0000000000000001     BAGUE REV A                                                                                                             00000000000000810000000000000030                   UP 0000000000000000BLR          CDG          -0000000000003000110AI2IN FR 0000000000000000              00000000                    AIR FRANCE                                                                                               00000000000300000000000000030000000000000003000020312751               20221101                                                *                                                                                                                                                                                                                                                                                                                                                                                                                                                                                                                                                                                                                                                                                                                                                                                                                                                                                                                                                                                                                                                                                                                                                                                                                                                                             
GID410016394                          0000101BAGUE REV A                                                                                                                                                                                                                0000000000000001               0000000000000081CBM0000000000000030KGS0000000000000030   00000000000300000000000000030000                                                                                                    *                                                                                                                                                                                                                                                                                                                                                                                                                                                                                                                                                                                                                                                                                                                                                                                                                                                                                                                                                                                                                                                                                                                                                                                                                                                                                                                                                                                                                                                                                                                                                                           
FAI410016394                          00001DROIT DE DOUANE                                   002-000000000018600EUR104002                 D001000000000                                                  010000000000000000   00100000000000001                                                                           *                                                                                                                                                                                                                                                                                                                                                                                                                                                                                                                                                                                                                                                                                                                                                                                                                                                                                                                                                                                                                                                                                                                                                                                                                                                                                                                                                                                                                                                                                                                                                                                                                                                                                                                                                     
FAI410016394                          00001TAXES DIVERSES DOUANE                             006-000000000000400EUR104006                 D001000000000                                                  020000000000000000   00100000000000002                                                                           *                                                                                                                                                                                                                                                                                                                                                                                                                                                                                                                                                                                                                                                                                                                                                                                                                                                                                                                                                                                                                                                                                                                                                                                                                                                                                                                                                                                                                                                                                                                                                                                                                                                                                                                                                     
FAI410016394                          00001CREDIT D ENLEVEMENT                               032-000000000001500EUR125032                 D001000000000                                                  030000000000000000   00100000000000003                                                                           *                                                                                                                                                                                                                                                                                                                                                                                                                                                                                                                                                                                                                                                                                                                                                                                                                                                                                                                                                                                                                                                                                                                                                                                                                                                                                                                                                                                                                                                                                                                                                                                                                                                                                                                                                     
FTI410016394                          00001ACWA AUTOMATICS LLP                NO 204,12TH MAIN 3RD PHASE,PEENYA  INDUSTRIAL AREA                    560058    BENGALURU                          IN CONNECTEURS ELECTRIQUES DEUTSCH    17 RUE LAVOISIER                   ZONE INDUSTRIELLE LA MADELEINE N 2 27000     EVREUX                             FR EXW 35670020394128 2022-10-2623 562022-11-1014 32      BLR    CDG  2022-10-3102 412022-10-2911 002022-11-0812 12BLR-80708476   057-10581266   ROUNORMAL              2022-10-3108 45                              EXWCCEBANGALORE           ROISSY CDG          AF  AIR FRANCE                                                                       D    A    JETC      E1SCHENKERJETCARGO ECONOMY  (E1)                       188BP712                                                                                                                                                                                                         *                                                                                                                                                                                                                                                                                                                                                                                                                                                                                                                                                                                                                                                                                                                                                                                                                                                                                                                                                                                                                                                                 
TOT410016394                          -000000000020800EUR-000000000000300EUR-000000000019000EUR-000000000001500EUR0000000000017500EUR                                                                                                                                                                                                                                                                                                                                                                                                                                                                                                                                                                                                                                                                                                                                                                                                                                                                                                                                                                                                                                                                                                                                                                                                                                                                                                                                                                                                                                                                                                                                                                                                                                                                                                                                                                                                                                                                                                                                           
COE410016394                               Tva acquitte sur les encaissements                                                                 TVA                 001*                                                                                                                                                                                                                                                                                                                                                                                                                                                                                                                                                                                                                                                                                                                                                                                                                                                                                                                                                                                                                                                                                                                                                                                                                                                                                                                                                                                                                                                                                                                                                                                                                                                                                                                                                                                                                                                                                                         
COR410016394                          0000017789/00001/10510516001/77 DEUTSCHE BANK AG PARIS                                                   RIB                 EUR*                                                                                                                                                                                                                                                                                                                                                                                                                                                                                                                                                                                                                                                                                                                                                                                                                                                                                                                                                                                                                                                                                                                                                                                                                                                                                                                                                                                                                                                                                                                                                                                                                                                                                                                                                                                                                                                                                                         
COR410016394                          00000FR76 1778 9000 0110 5105 1600 177 BIC : DEUTFRPP                                                    IBAN                EUR*                                                                                                                                                                                                                                                                                                                                                                                                                                                                                                                                                                                                                                                                                                                                                                                                                                                                                                                                                                                                                                                                                                                                                                                                                                                                                                                                                                                                                                                                                                                                                                                                                                                                                                                                                                                                                                                                                                         
COR410016394                          0000017789/00001/10510516003/71 DEUTSCHE BANK AG PARIS                                                   RIB                 USD*                                                                                                                                                                                                                                                                                                                                                                                                                                                                                                                                                                                                                                                                                                                                                                                                                                                                                                                                                                                                                                                                                                                                                                                                                                                                                                                                                                                                                                                                                                                                                                                                                                                                                                                                                                                                                                                                                                         
COR410016394                          00000FR76 1778 9000 0110 5105 1600 371 BIC : DEUTFRPP                                                    IBAN                USD*                                                                                                                                                                                                                                                                                                                                                                                                                                                                                                                                                                                                                                                                                                                                                                                                                                                                                                                                                                                                                                                                                                                                                                                                                                                                                                                                                                                                                                                                                                                                                                                                                                                                                                                                                                                                                                                                                                         
INF410016394                          ESC  CONDITIONS DE PAIEMENT                                             Les prestations de service sont payables comptant  rception de la facture, sans escompte, au lieu d mission de celle-ci, et en tout  tat de cause, dans un dlai qui ne peut excder 30 jours  compter de sa date d mission.                                                                                                                                                                                                                                                                                                                                                                                                                                                                                                                                                                                                                                                                                                                                                                                                                                                                                                                                                                                                                                                                                                                                                                                                                                                                                                                                                                                                                                                                                                                                                                                                                                                                                                                                
INF410016394                          PEN  Conformment  la rglementation applicable, le taux d intrt des  pnalits de retard, exigibles le jour suivant la date de rglement figurant sur la facture dans le cas o les sommes dues sont rgles aprs cette date, est gal au taux d intrt appliqu par la Banque centrale europenne  son opration de refinancement la plus rcentemajor de 10 points de pourcentage et fix selon les modalits      dfinies par la rglementation applicable.                                                                                                                                                                                                                                                                                                                                                                                                                                                                                                                                                                                                                                                                                                                                                                                                                                                                                                                                                                                                                                                                                                                                                                                                                                                                                                                                                                                                                                                                                                                                                                   
INF410016394                          FAI  Indemnit forfaitaire pour frais de recouvrement d'un montant      minimum de 40 euros suivant la rglementation applicable, et ce,    sans prjudice de la rparation ventuelle, dans les conditions du  droit commun, de tout autre dommage rsultant directement du retard.                                                                                                                                                                                                                                                                                                                                                                                                                                                                                                                                                                                                                                                                                                                                                                                                                                                                                                                                                                                                                                                                                                                                                                                                                                                                                                                                                                                                                                                                                                                                                                                                                                                                                                                                                      
INF410016394                          CGV  CGV consultables sur notre site                                     https://www.dbschenker.com/fr-fr/meta/terms-and-conditions                                                                                                                                                                                                                                                                                                                                                                                                                                                                                                                                                                                                                                                                                                                                                                                                                                                                                                                                                                                                                                                                                                                                                                                                                                                                                                                                                                                                                                                                                                                                                                                                                                                                                                                                                                                                                                                                                                       
INF410016394                          REG  Reglement VIREMENT BANCAIRE    au 20230126                                                                                                                                                                                                                                                                                                                                                                                                                                                                                                                                                                                                                                                                                                                                                                                                                                                                                                                                                                                                                                                                                                                                                                                                                                                                                                                                                                                                                                                                                                                                                                                                                                                                                                                                                                                                                                                                                                                                                                                           
INF410016394                          ADR  A Adresser:SCHENKER FRANCE - COMPTABILITE ZI NORD CS07003                85607 MONTAIGU CEDEX                                                                                                                                                                                                                                                                                                                                                                                                                                                                                                                                                                                                                                                                                                                                                                                                                                                                                                                                                                                                                                                                                                                                                                                                                                                                                                                                                                                                                                                                                                                                                                                                                                                                                                                                                                                                                                                                                                                                        
INF410016394                          PAI  Paiement comptant (Date de facture) sans escompte.CS07003                85607 MONTAIGU CEDEX                                                                                                                                                                                                                                                                                                                                                                                                                                                                                                                                                                                                                                                                                                                                                                                                                                                                                                                                                                                                                                                                                                                                                                                                                                                                                                                                                                                                                                                                                                                                                                                                                                                                                                                                                                                                                                                                                                                                        
