PAR410016323                          SCFCDG    FRSIPA-A  mauricette.moungouka@DBSCHENKER.COM                                                                                     MOUNGOUKAMMOUNGOUKA MAURICETTE Assistante administrative                                                                                              432159150 -A        381          FR4111              432159150                     *                                                                                                                                                                                                                                                                                                                                                                                                                                                                                                                                                                                                                                                                                                                                                                                                                                                                                                                                                                                                                                                                                                                                                                                                                                                                                                                                                                                                                                                                                                                                                                                                                                                    
ENT432159150           710016323                          38120230104AAIAPE : 5229B                                                                                                                                                                                                                                                                                                                                                   0000000000051574USD000000000000080900000000000467200000000000004045EUR001054500000000000051574                                                                                                                                                                                                                                                                2288729   25023452202301042023010420230303142031A  +01:00FR$SCFCDG432159150$410016323$25023452                                                                                                                                                                        R  R0110                                                                                  SCHENKER FRANCE                    ZI Nord   CS 07003                                                    85607    MONTAIGU Cedex                     FRA+33 (0)2.51.45.20.00                                                        *                                                                                                                                                                                                                                                                                                                                                                                                                                                                                                                                                                                                                                                                       
TIE410016323                          II SCHENKER FRANCE SAS                BAT.3626  RUE DU PIED SEC          ROISSY CDG                         93290    TREMBLAY EN FRANCE CEDEX           FR CDG       FR30550502942       AGENCE DE ROISSY CDG                                                   33141843615        31179945601446   0         797034    FR4111    11199     SCFCDG                    SAS       5.749.008                     EUR                      *                                                                                                                                                                                                                                                                                                                                                                                                                                                                                                                                                                                                                                                                                                                                                                                                                                                                                                                                                                                                                                                                                                                                                                                                                                                                                                                                                                                                                                                                                                                                                                                                  
TIE410016323                          IV EMBRAER AVIATION INTERNATIONAL     AEROPORT LE BOURGET BAT 379                                           95500    BONNEUIL EN FRANCE                 FR DG509     FR03432159150                                                                                                 43215915000064    41486                                  432159150 N                                                                                *                                                                                                                                                                                                                                                                                                                                                                                                                                                                                                                                                                                                                                                                                                                                                                                                                                                                                                                                                                                                                                                                                                                                                                                                                                                                                                                                                                                                                                                                                                                                                                                                  
TIE410016323                          RE SCHENKER FRANCE SAS                BAT.3626  RUE DU PIED SEC          ROISSY CDG                         93290    TREMBLAY EN FRANCE CEDEX           FR CDG       FR30550502942                                                                                                 31179945601446    41486                                  432159150 N                                                                                *                                                                                                                                                                                                                                                                                                                                                                                                                                                                                                                                                                                                                                                                                                                                                                                                                                                                                                                                                                                                                                                                                                                                                                                                                                                                                                                                                                                                                                                                                                                                                                                                  
EN2410016323                          3  5                   3  D  030202302030200001250000000000004045USD                                                                                                                                          VIREMENT BANCAIRE   1040000000000046720USDT FR                                                                                                     *                                                                                                                                                                                                                                                                                                                                                                                                                                                                                                                                                                                                                                                                                                                                                                                                                                                                                                                                                                                                                                                                                                                                                                                                                                                                                                                                                                                                                                                                                                                                                                                                                                                                        
COR410016323                          00000                                                                    PLT : MN                                            001*                                                                                                                                                                                                                                                                                                                                                                                                                                                                                                                                                                                                                                                                                                                                                                                                                                                                                                                                                                                                                                                                                                                                                                                                                                                                                                                                                                                                                                                                                                                                                                                                                                                                                                                                                                                                                                                                                                         
COR410016323                          00000ANNULATION FACTURE ...  2288729                                                                                         002*                                                                                                                                                                                                                                                                                                                                                                                                                                                                                                                                                                                                                                                                                                                                                                                                                                                                                                                                                                                                                                                                                                                                                                                                                                                                                                                                                                                                                                                                                                                                                                                                                                                                                                                                                                                                                                                                                                         
COR410016323                          00000                        N  COMPTABLE :  41486                                                                           003*                                                                                                                                                                                                                                                                                                                                                                                                                                                                                                                                                                                                                                                                                                                                                                                                                                                                                                                                                                                                                                                                                                                                                                                                                                                                                                                                                                                                                                                                                                                                                                                                                                                                                                                                                                                                                                                                                                         
BQE410016323                               10510516001                                                                                         BANK1BankAccount       *                                                                                                                                                                                                                                                                                                                                                                                                                                                                                                                                                                                                                                                                                                                                                                                                                                                                                                                                                                                                                                                                                                                                                                                                                                                                                                                                                                                                                                                                                                                                                                                                                                                                                                                                                                                                                                                                                                         
BQE410016323                               17789                                                                                               BANK1BankCodeLocal     *                                                                                                                                                                                                                                                                                                                                                                                                                                                                                                                                                                                                                                                                                                                                                                                                                                                                                                                                                                                                                                                                                                                                                                                                                                                                                                                                                                                                                                                                                                                                                                                                                                                                                                                                                                                                                                                                                                         
BQE410016323                               EUR                                                                                                 BANK1BankCurrencySym   *                                                                                                                                                                                                                                                                                                                                                                                                                                                                                                                                                                                                                                                                                                                                                                                                                                                                                                                                                                                                                                                                                                                                                                                                                                                                                                                                                                                                                                                                                                                                                                                                                                                                                                                                                                                                                                                                                                         
BQE410016323                               FR76 1778 9000 0110 5105 1600 177                                                                   BANK1BankIban          *                                                                                                                                                                                                                                                                                                                                                                                                                                                                                                                                                                                                                                                                                                                                                                                                                                                                                                                                                                                                                                                                                                                                                                                                                                                                                                                                                                                                                                                                                                                                                                                                                                                                                                                                                                                                                                                                                                         
BQE410016323                               DEUTSCHE BANK AG PARIS                                                                              BANK1BankName          *                                                                                                                                                                                                                                                                                                                                                                                                                                                                                                                                                                                                                                                                                                                                                                                                                                                                                                                                                                                                                                                                                                                                                                                                                                                                                                                                                                                                                                                                                                                                                                                                                                                                                                                                                                                                                                                                                                         
BQE410016323                               DEUTFRPP                                                                                            BANK1BankSwiftBic      *                                                                                                                                                                                                                                                                                                                                                                                                                                                                                                                                                                                                                                                                                                                                                                                                                                                                                                                                                                                                                                                                                                                                                                                                                                                                                                                                                                                                                                                                                                                                                                                                                                                                                                                                                                                                                                                                                                         
BQE410016323                               10510516003                                                                                         BANK2BankAccount       *                                                                                                                                                                                                                                                                                                                                                                                                                                                                                                                                                                                                                                                                                                                                                                                                                                                                                                                                                                                                                                                                                                                                                                                                                                                                                                                                                                                                                                                                                                                                                                                                                                                                                                                                                                                                                                                                                                         
BQE410016323                               17789                                                                                               BANK2BankCodeLocal     *                                                                                                                                                                                                                                                                                                                                                                                                                                                                                                                                                                                                                                                                                                                                                                                                                                                                                                                                                                                                                                                                                                                                                                                                                                                                                                                                                                                                                                                                                                                                                                                                                                                                                                                                                                                                                                                                                                         
BQE410016323                               USD                                                                                                 BANK2BankCurrencySym   *                                                                                                                                                                                                                                                                                                                                                                                                                                                                                                                                                                                                                                                                                                                                                                                                                                                                                                                                                                                                                                                                                                                                                                                                                                                                                                                                                                                                                                                                                                                                                                                                                                                                                                                                                                                                                                                                                                         
BQE410016323                               FR76 1778 9000 0110 5105 1600 371                                                                   BANK2BankIban          *                                                                                                                                                                                                                                                                                                                                                                                                                                                                                                                                                                                                                                                                                                                                                                                                                                                                                                                                                                                                                                                                                                                                                                                                                                                                                                                                                                                                                                                                                                                                                                                                                                                                                                                                                                                                                                                                                                         
BQE410016323                               DEUTSCHE BANK AG PARIS                                                                              BANK2BankName          *                                                                                                                                                                                                                                                                                                                                                                                                                                                                                                                                                                                                                                                                                                                                                                                                                                                                                                                                                                                                                                                                                                                                                                                                                                                                                                                                                                                                                                                                                                                                                                                                                                                                                                                                                                                                                                                                                                         
BQE410016323                               DEUTFRPP                                                                                            BANK2BankSwiftBic      *                                                                                                                                                                                                                                                                                                                                                                                                                                                                                                                                                                                                                                                                                                                                                                                                                                                                                                                                                                                                                                                                                                                                                                                                                                                                                                                                                                                                                                                                                                                                                                                                                                                                                                                                                                                                                                                                                                         
EN4410016323                                                                                                                              *                                                                                                                                                                                                                                                                                                                                                                                                                                                                                                                                                                                                                                                                                                                                                                                                                                                                                                                                                                                                                                                                                                                                                                                                                                                                                                                                                                                                                                                                                                                                                                                                                                                                                                                                                                                                                                                                                                                                     
FAC410016323                          0000125023452            0000000000000008000000000000004747 0000000000000001KGM-000000000050765USD2022113025023452            84070107169278                                    0000000000000001     CURSOR CONTROL DEVICE 09H15/01                                                                                          00000000000000470000000000000003                   UP 0000000000000000MCI          CDG          -0000000000008090110AI2US FR 0000000000000000              00000000                    AMERICAN AIRLIN                                                                                          00000000000080000000000000003400000000000000100025023452               20221201                                                *                                                                                                                                                                                                                                                                                                                                                                                                                                                                                                                                                                                                                                                                                                                                                                                                                                                                                                                                                                                                                                                                                                                                                                                                                                                                             
GID410016323                          0000101CURSOR CONTROL DEVICE 09H15/01                                                                      8011343159 BR221129002                                                                                                 0000000000000001               0000000000000047CBM0000000000000003KGS0000000000000008   00000000000034000000000000008000                                                                                                    *                                                                                                                                                                                                                                                                                                                                                                                                                                                                                                                                                                                                                                                                                                                                                                                                                                                                                                                                                                                                                                                                                                                                                                                                                                                                                                                                                                                                                                                                                                                                                                           
FAI410016323                          00001ENLEVEMENT ORIGIN                                 A1E-000000000023930USD104A1E                 D001000000000                                                  010000000000000000   00100000000000001                                                                           *                                                                                                                                                                                                                                                                                                                                                                                                                                                                                                                                                                                                                                                                                                                                                                                                                                                                                                                                                                                                                                                                                                                                                                                                                                                                                                                                                                                                                                                                                                                                                                                                                                                                                                                                                     
FAI410016323                          00001FRAIS A L ORIGINE (ORIGIN FEES)                   A7A-000000000002750USD125A7A                 D001000000000                                                  020000000000000000   00100000000000002                                                                           *                                                                                                                                                                                                                                                                                                                                                                                                                                                                                                                                                                                                                                                                                                                                                                                                                                                                                                                                                                                                                                                                                                                                                                                                                                                                                                                                                                                                                                                                                                                                                                                                                                                                                                                                                     
FAI410016323                          00001SURCHARGE FUEL CIE                                A8F-000000000001500USD104A8F                 D001000000000                                                  030000000000000000   00100000000000003                                                                           *                                                                                                                                                                                                                                                                                                                                                                                                                                                                                                                                                                                                                                                                                                                                                                                                                                                                                                                                                                                                                                                                                                                                                                                                                                                                                                                                                                                                                                                                                                                                                                                                                                                                                                                                                     
FAI410016323                          00001SECURISATION                                      A9S-000000000001950USD104A9S                 D001000000000                                                  040000000000000000   00100000000000004                                                                           *                                                                                                                                                                                                                                                                                                                                                                                                                                                                                                                                                                                                                                                                                                                                                                                                                                                                                                                                                                                                                                                                                                                                                                                                                                                                                                                                                                                                                                                                                                                                                                                                                                                                                                                                                     
FAI410016323                          00001SCREENING FEES                                    A9U-000000000002000USD104A9U                 D001000000000                                                  050000000000000000   00100000000000005                                                                           *                                                                                                                                                                                                                                                                                                                                                                                                                                                                                                                                                                                                                                                                                                                                                                                                                                                                                                                                                                                                                                                                                                                                                                                                                                                                                                                                                                                                                                                                                                                                                                                                                                                                                                                                                     
FAI410016323                          00001FRET AERIEN                                       073-000000000017340USD104073                 D001000000000                                                  060000000000000000   00100000000000006                                                                           *                                                                                                                                                                                                                                                                                                                                                                                                                                                                                                                                                                                                                                                                                                                                                                                                                                                                                                                                                                                                                                                                                                                                                                                                                                                                                                                                                                                                                                                                                                                                                                                                                                                                                                                                                     
FAI410016323                          00001FORFAIT D INTERVENTION                            125-000000000001295USD125125                 D001000000000                                                  070000000000000000   00100000000000007                                                                           *                                                                                                                                                                                                                                                                                                                                                                                                                                                                                                                                                                                                                                                                                                                                                                                                                                                                                                                                                                                                                                                                                                                                                                                                                                                                                                                                                                                                                                                                                                                                                                                                                                                                                                                                                     
FTI410016323                          00001HONEYWELL AES                      23500 W 105TH ST                                                      660618425 OLATHE                             US EMBRAER AVIATION INTL              ZAC DE LA VILLETTE AUX AULNES      RUE RENE CASSIN                    77290     MITRY MORY                         FR CPT 84070107169278 2022-11-2916 002022-12-0515 45      MCI    CDG  2022-11-3017 562022-12-0109 152022-12-0112 21001-67188973   001-67188973   ROUNORMAL              2022-11-3009 00                              CPTPPAKANSAS CITY         ROISSY CDG          AA  AMERICAN AIRLIN                                                                  A    A    AERO      AFSCHENKERAEROPARTS AOG (AF)                           245DG509                                                                                                                                                                                                         *                                                                                                                                                                                                                                                                                                                                                                                                                                                                                                                                                                                                                                                                                                                                                                                                                                                                                                                                                                                                                                                                 
RFF410016323                          SRSBR221129002                                                                                                                       *                                                                                                                                                                                                                                                                                                                                                                                                                                                                                                                                                                                                                                                                                                                                                                                                                                                                                                                                                                                                                                                                                                                                                                                                                                                                                                                                                                                                                                                                                                                                                                                                                                                                                                                                                                                                                                                                                                    
RFF410016323                          SKYN                                                                                                                                 *                                                                                                                                                                                                                                                                                                                                                                                                                                                                                                                                                                                                                                                                                                                                                                                                                                                                                                                                                                                                                                                                                                                                                                                                                                                                                                                                                                                                                                                                                                                                                                                                                                                                                                                                                                                                                                                                                                    
RFF410016323                          XXXUSR REIKO WANG                                                                                                                    *                                                                                                                                                                                                                                                                                                                                                                                                                                                                                                                                                                                                                                                                                                                                                                                                                                                                                                                                                                                                                                                                                                                                                                                                                                                                                                                                                                                                                                                                                                                                                                                                                                                                                                                                                                                                                                                                                                    
RFF410016323                          SRC0905354804                                                                                                                        *                                                                                                                                                                                                                                                                                                                                                                                                                                                                                                                                                                                                                                                                                                                                                                                                                                                                                                                                                                                                                                                                                                                                                                                                                                                                                                                                                                                                                                                                                                                                                                                                                                                                                                                                                                                                                                                                                                    
RFF410016323                          CIN8011343159                                                                                                                        *                                                                                                                                                                                                                                                                                                                                                                                                                                                                                                                                                                                                                                                                                                                                                                                                                                                                                                                                                                                                                                                                                                                                                                                                                                                                                                                                                                                                                                                                                                                                                                                                                                                                                                                                                                                                                                                                                                    
TOT410016323                          -000000000051574USD-000000000000809USD-000000000046720USD-000000000004045USD0000000000042675USD                                                                                                                                                                                                                                                                                                                                                                                                                                                                                                                                                                                                                                                                                                                                                                                                                                                                                                                                                                                                                                                                                                                                                                                                                                                                                                                                                                                                                                                                                                                                                                                                                                                                                                                                                                                                                                                                                                                                           
COE410016323                               Tva acquitte sur les encaissements                                                                 TVA                 001*                                                                                                                                                                                                                                                                                                                                                                                                                                                                                                                                                                                                                                                                                                                                                                                                                                                                                                                                                                                                                                                                                                                                                                                                                                                                                                                                                                                                                                                                                                                                                                                                                                                                                                                                                                                                                                                                                                         
COR3700721                            0000017789/00001/10510516001/77 DEUTSCHE BANK AG PARIS                                                   RIB                 EUR*                                                                                                                                                                                                                                                                                                                                                                                                                                                                                                                                                                                                                                                                                                                                                                                                                                                                                                                                                                                                                                                                                                                                                                                                                                                                                                                                                                                                                                                                                                                                                                                                                                                                                                                                                                                                                                                                                                         
COR3700721                            00000FR76 1778 9000 0110 5105 1600 177 BIC : DEUTFRPP                                                    IBAN                EUR*                                                                                                                                                                                                                                                                                                                                                                                                                                                                                                                                                                                                                                                                                                                                                                                                                                                                                                                                                                                                                                                                                                                                                                                                                                                                                                                                                                                                                                                                                                                                                                                                                                                                                                                                                                                                                                                                                                         
COR3700721                            0000017789/00001/10510516003/71 DEUTSCHE BANK AG PARIS                                                   RIB                 USD*                                                                                                                                                                                                                                                                                                                                                                                                                                                                                                                                                                                                                                                                                                                                                                                                                                                                                                                                                                                                                                                                                                                                                                                                                                                                                                                                                                                                                                                                                                                                                                                                                                                                                                                                                                                                                                                                                                         
COR3700721                            00000FR76 1778 9000 0110 5105 1600 371 BIC : DEUTFRPP                                                    IBAN                USD*                                                                                                                                                                                                                                                                                                                                                                                                                                                                                                                                                                                                                                                                                                                                                                                                                                                                                                                                                                                                                                                                                                                                                                                                                                                                                                                                                                                                                                                                                                                                                                                                                                                                                                                                                                                                                                                                                                         
INF410016323                          ESC  CONDITIONS DE PAIEMENT                                             Les prestations de service sont payables comptant  rception de la facture, sans escompte, au lieu d mission de celle-ci, et en tout  tat de cause, dans un dlai qui ne peut excder 30 jours  compter de sa date d mission.                                                                                                                                                                                                                                                                                                                                                                                                                                                                                                                                                                                                                                                                                                                                                                                                                                                                                                                                                                                                                                                                                                                                                                                                                                                                                                                                                                                                                                                                                                                                                                                                                                                                                                                                
INF410016323                          PEN  Conformment  la rglementation applicable, le taux d intrt des  pnalits de retard, exigibles le jour suivant la date de rglement figurant sur la facture dans le cas o les sommes dues sont rgles aprs cette date, est gal au taux d intrt appliqu par la Banque centrale europenne  son opration de refinancement la plus rcentemajor de 10 points de pourcentage et fix selon les modalits      dfinies par la rglementation applicable.                                                                                                                                                                                                                                                                                                                                                                                                                                                                                                                                                                                                                                                                                                                                                                                                                                                                                                                                                                                                                                                                                                                                                                                                                                                                                                                                                                                                                                                                                                                                                                   
INF410016323                          FAI  Indemnit forfaitaire pour frais de recouvrement d'un montant      minimum de 40 euros suivant la rglementation applicable, et ce,    sans prjudice de la rparation ventuelle, dans les conditions du  droit commun, de tout autre dommage rsultant directement du retard.                                                                                                                                                                                                                                                                                                                                                                                                                                                                                                                                                                                                                                                                                                                                                                                                                                                                                                                                                                                                                                                                                                                                                                                                                                                                                                                                                                                                                                                                                                                                                                                                                                                                                                                                                      
INF410016323                          CGV  CGV consultables sur notre site                                     https://www.dbschenker.com/fr-fr/meta/terms-and-conditions                                                                                                                                                                                                                                                                                                                                                                                                                                                                                                                                                                                                                                                                                                                                                                                                                                                                                                                                                                                                                                                                                                                                                                                                                                                                                                                                                                                                                                                                                                                                                                                                                                                                                                                                                                                                                                                                                                       
INF410016323                          REG  Reglement VIREMENT BANCAIRE    au 20230104                                                                                                                                                                                                                                                                                                                                                                                                                                                                                                                                                                                                                                                                                                                                                                                                                                                                                                                                                                                                                                                                                                                                                                                                                                                                                                                                                                                                                                                                                                                                                                                                                                                                                                                                                                                                                                                                                                                                                                                           
INF410016323                          ADR  A Adresser:SCHENKER FRANCE - COMPTABILITE ZI NORD CS07003                85607 MONTAIGU CEDEX                                                                                                                                                                                                                                                                                                                                                                                                                                                                                                                                                                                                                                                                                                                                                                                                                                                                                                                                                                                                                                                                                                                                                                                                                                                                                                                                                                                                                                                                                                                                                                                                                                                                                                                                                                                                                                                                                                                                        
